{
  "contractName": "Limited",
  "abi": [
    {
      "constant": true,
      "inputs": [
        {
          "name": "",
          "type": "uint256"
        }
      ],
      "name": "owners",
      "outputs": [
        {
          "name": "",
          "type": "address"
        }
      ],
      "payable": false,
      "stateMutability": "view",
      "type": "function"
    },
    {
      "constant": true,
      "inputs": [],
      "name": "numOfItems",
      "outputs": [
        {
          "name": "",
          "type": "uint256"
        }
      ],
      "payable": false,
      "stateMutability": "view",
      "type": "function"
    },
    {
      "inputs": [],
      "payable": false,
      "stateMutability": "nonpayable",
      "type": "constructor"
    },
    {
      "constant": true,
      "inputs": [
        {
          "name": "item",
          "type": "uint256"
        }
      ],
      "name": "getItemName",
      "outputs": [
        {
          "name": "",
          "type": "string"
        }
      ],
      "payable": false,
      "stateMutability": "view",
      "type": "function"
    },
    {
      "constant": true,
      "inputs": [
        {
          "name": "item",
          "type": "uint256"
        }
      ],
      "name": "getItemSize",
      "outputs": [
        {
          "name": "",
          "type": "uint256"
        }
      ],
      "payable": false,
      "stateMutability": "view",
      "type": "function"
    },
    {
      "constant": true,
      "inputs": [
        {
          "name": "item",
          "type": "uint256"
        }
      ],
      "name": "getItemColor",
      "outputs": [
        {
          "name": "",
          "type": "string"
        }
      ],
      "payable": false,
      "stateMutability": "view",
      "type": "function"
    },
    {
      "constant": true,
      "inputs": [
        {
          "name": "item",
          "type": "uint256"
        }
      ],
      "name": "getItemDescription",
      "outputs": [
        {
          "name": "",
          "type": "string"
        }
      ],
      "payable": false,
      "stateMutability": "view",
      "type": "function"
    },
    {
      "constant": true,
      "inputs": [
        {
          "name": "item",
          "type": "uint256"
        }
      ],
      "name": "getItemYear",
      "outputs": [
        {
          "name": "",
          "type": "uint256"
        }
      ],
      "payable": false,
      "stateMutability": "view",
      "type": "function"
    },
    {
      "constant": true,
      "inputs": [
        {
          "name": "item",
          "type": "uint256"
        }
      ],
      "name": "getItemBeliveryVolume",
      "outputs": [
        {
          "name": "",
          "type": "uint256"
        }
      ],
      "payable": false,
      "stateMutability": "view",
      "type": "function"
    },
    {
      "constant": true,
      "inputs": [
        {
          "name": "item",
          "type": "uint256"
        }
      ],
      "name": "getItemPrice",
      "outputs": [
        {
          "name": "",
          "type": "uint256"
        }
      ],
      "payable": false,
      "stateMutability": "view",
      "type": "function"
    },
    {
      "constant": true,
      "inputs": [
        {
          "name": "ownerAddress",
          "type": "address"
        }
      ],
      "name": "getItemsOfAddress",
      "outputs": [
        {
          "name": "",
          "type": "uint256[]"
        }
      ],
      "payable": false,
      "stateMutability": "view",
      "type": "function"
    },
    {
      "constant": false,
      "inputs": [
        {
          "name": "newOwner",
          "type": "address"
        },
        {
          "name": "item",
          "type": "uint256"
        }
      ],
      "name": "transferRights",
      "outputs": [
        {
          "name": "",
          "type": "bool"
        }
      ],
      "payable": false,
      "stateMutability": "nonpayable",
      "type": "function"
    }
  ],
  "bytecode": "0x606060405234156200001057600080fd5b60006003600081905550600090505b6000548110156200008a57336008600083815260200190815260200160002060006101000a81548173ffffffffffffffffffffffffffffffffffffffff021916908373ffffffffffffffffffffffffffffffffffffffff16021790555080806001019150506200001f565b6060604051908101604052806040805190810160405280601681526020017f416469646173205965657a7920426f6f7374203335300000000000000000000081525081526020016040805190810160405280600a81526020017f416469646173204e4d440000000000000000000000000000000000000000000081525081526020016040805190810160405280600d81526020017f416972204a6f7264616e20313100000000000000000000000000000000000000815250815250600190600362000157929190620004de565b50606060405190810160405280602660ff168152602001602c60ff168152602001602d60ff1681525060039060036200019292919062000545565b506060604051908101604052806040805190810160405280600781526020017f234242424242420000000000000000000000000000000000000000000000000081525081526020016040805190810160405280600781526020017f234631434434330000000000000000000000000000000000000000000000000081525081526020016040805190810160405280600781526020017f2338463932393400000000000000000000000000000000000000000000000000815250815250600290600362000260929190620004de565b50606060405190810160405280606060405190810160405280603c81526020017f546865206f6666696369616c20636f6c6c61626f726174696f6e20736e65616b81526020017f6572206279204b616e7965205765737420616e64204164696461732e00000000815250815260200160a060405190810160405280607081526020017f546865204e4d442c20616469646173204f726967696e616c73e28099206e657781526020017f206b6964206f6e2074686520626c6f636b2c2068617320717569636b6c79206781526020017f61696e65642061207665727920736f6c696420666f6f74696e6720696e20746881526020017f6520736e65616b657220776f726c642e000000000000000000000000000000008152508152602001608060405190810160405280605481526020017f416972204a6f7264616e2069732061206272616e64206f66206261736b65746281526020017f616c6c20666f6f747765617220616e64206174686c6574696320636c6f74686981526020017f6e672070726f6475636564206279204e696b652e000000000000000000000000815250815250600490600362000415929190620004de565b506060604051908101604052806107e161ffff1681526020016107e261ffff1681526020016107e061ffff168152506005906003620004569291906200059c565b5060606040519081016040528060c861ffff16815260200161012c61ffff168152602001606461ffff168152506006906003620004959291906200059c565b506060604051908101604052806103e861ffff1681526020016104b061ffff1681526020016105dc61ffff168152506007906003620004d69291906200059c565b505062000720565b82805482825590600052602060002090810192821562000532579160200282015b828111156200053157825182908051906020019062000520929190620005f4565b5091602001919060010190620004ff565b5b5090506200054191906200067b565b5090565b82805482825590600052602060002090810192821562000589579160200282015b8281111562000588578251829060ff1690559160200191906001019062000566565b5b509050620005989190620006ac565b5090565b828054828255906000526020600020908101928215620005e1579160200282015b82811115620005e0578251829061ffff16905591602001919060010190620005bd565b5b509050620005f09190620006ac565b5090565b828054600181600116156101000203166002900490600052602060002090601f016020900481019282601f106200063757805160ff191683800117855562000668565b8280016001018555821562000668579182015b82811115620006675782518255916020019190600101906200064a565b5b509050620006779190620006ac565b5090565b620006a991905b80821115620006a557600081816200069b9190620006d4565b5060010162000682565b5090565b90565b620006d191905b80821115620006cd576000816000905550600101620006b3565b5090565b90565b50805460018160011615610100020316600290046000825580601f10620006fc57506200071d565b601f0160209004906000526020600020908101906200071c9190620006ac565b5b50565b610b4480620007306000396000f3006060604052600436106100af576000357c0100000000000000000000000000000000000000000000000000000000900463ffffffff168063025e7c27146100b457806321837738146101175780632ab75343146101a55780634c4df870146101dc57806382682ff314610213578063aca257201461023c578063c02619c4146102d8578063d41edc0e14610374578063d9561a91146103ce578063e2883a761461046a578063f98d8850146104a1575b600080fd5b34156100bf57600080fd5b6100d560048080359060200190919050506104d8565b604051808273ffffffffffffffffffffffffffffffffffffffff1673ffffffffffffffffffffffffffffffffffffffff16815260200191505060405180910390f35b341561012257600080fd5b61014e600480803573ffffffffffffffffffffffffffffffffffffffff1690602001909190505061050b565b6040518080602001828103825283818151815260200191508051906020019060200280838360005b83811015610191578082015181840152602081019050610176565b505050509050019250505060405180910390f35b34156101b057600080fd5b6101c6600480803590602001909190505061061b565b6040518082815260200191505060405180910390f35b34156101e757600080fd5b6101fd600480803590602001909190505061065e565b6040518082815260200191505060405180910390f35b341561021e57600080fd5b6102266106a1565b6040518082815260200191505060405180910390f35b341561024757600080fd5b61025d60048080359060200190919050506106a7565b6040518080602001828103825283818151815260200191508051906020019080838360005b8381101561029d578082015181840152602081019050610282565b50505050905090810190601f1680156102ca5780820380516001836020036101000a031916815260200191505b509250505060405180910390f35b34156102e357600080fd5b6102f96004808035906020019091905050610788565b6040518080602001828103825283818151815260200191508051906020019080838360005b8381101561033957808201518184015260208101905061031e565b50505050905090810190601f1680156103665780820380516001836020036101000a031916815260200191505b509250505060405180910390f35b341561037f57600080fd5b6103b4600480803573ffffffffffffffffffffffffffffffffffffffff16906020019091908035906020019091905050610869565b604051808215151515815260200191505060405180910390f35b34156103d957600080fd5b6103ef6004808035906020019091905050610938565b6040518080602001828103825283818151815260200191508051906020019080838360005b8381101561042f578082015181840152602081019050610414565b50505050905090810190601f16801561045c5780820380516001836020036101000a031916815260200191505b509250505060405180910390f35b341561047557600080fd5b61048b6004808035906020019091905050610a19565b6040518082815260200191505060405180910390f35b34156104ac57600080fd5b6104c26004808035906020019091905050610a5c565b6040518082815260200191505060405180910390f35b60086020528060005260406000206000915054906101000a900473ffffffffffffffffffffffffffffffffffffffff1681565b610513610a9f565b600080600090505b6000548110156105c2578373ffffffffffffffffffffffffffffffffffffffff166008600083815260200190815260200160002060009054906101000a900473ffffffffffffffffffffffffffffffffffffffff1673ffffffffffffffffffffffffffffffffffffffff1614156105b55781805480600101828161059f9190610ab3565b9160005260206000209001600083909190915055505b808060010191505061051b565b8180548060200260200160405190810160405280929190818152602001828054801561060d57602002820191906000526020600020905b8154815260200190600101908083116105f9575b505050505092505050919050565b60008160008110158015610630575060005481105b151561063b57600080fd5b60068381548110151561064a57fe5b906000526020600020900154915050919050565b60008160008110158015610673575060005481105b151561067e57600080fd5b60078381548110151561068d57fe5b906000526020600020900154915050919050565b60005481565b6106af610adf565b81600081101580156106c2575060005481105b15156106cd57600080fd5b6002838154811015156106dc57fe5b90600052602060002090018054600181600116156101000203166002900480601f01602080910402602001604051908101604052809291908181526020018280546001816001161561010002031660029004801561077b5780601f106107505761010080835404028352916020019161077b565b820191906000526020600020905b81548152906001019060200180831161075e57829003601f168201915b5050505050915050919050565b610790610adf565b81600081101580156107a3575060005481105b15156107ae57600080fd5b6004838154811015156107bd57fe5b90600052602060002090018054600181600116156101000203166002900480601f01602080910402602001604051908101604052809291908181526020018280546001816001161561010002031660029004801561085c5780601f106108315761010080835404028352916020019161085c565b820191906000526020600020905b81548152906001019060200180831161083f57829003601f168201915b5050505050915050919050565b60003373ffffffffffffffffffffffffffffffffffffffff166008600084815260200190815260200160002060009054906101000a900473ffffffffffffffffffffffffffffffffffffffff1673ffffffffffffffffffffffffffffffffffffffff16141561092d57826008600084815260200190815260200160002060006101000a81548173ffffffffffffffffffffffffffffffffffffffff021916908373ffffffffffffffffffffffffffffffffffffffff16021790555060019050610932565b600090505b92915050565b610940610adf565b8160008110158015610953575060005481105b151561095e57600080fd5b60018381548110151561096d57fe5b90600052602060002090018054600181600116156101000203166002900480601f016020809104026020016040519081016040528092919081815260200182805460018160011615610100020316600290048015610a0c5780601f106109e157610100808354040283529160200191610a0c565b820191906000526020600020905b8154815290600101906020018083116109ef57829003601f168201915b5050505050915050919050565b60008160008110158015610a2e575060005481105b1515610a3957600080fd5b600383815481101515610a4857fe5b906000526020600020900154915050919050565b60008160008110158015610a71575060005481105b1515610a7c57600080fd5b600583815481101515610a8b57fe5b906000526020600020900154915050919050565b602060405190810160405280600081525090565b815481835581811511610ada57818360005260206000209182019101610ad99190610af3565b5b505050565b602060405190810160405280600081525090565b610b1591905b80821115610b11576000816000905550600101610af9565b5090565b905600a165627a7a7230582003178da664429588a258ceac9b807bb03a27e94b82531def797fcc0f0d721f6f0029",
  "source": "pragma solidity ^0.4.18;\n\n/**\n * @title Limited\n * Implementation of the certificates in the digital form of limited products.\n */\ncontract Limited {\n    \n    // Sneakers characteristics\n    uint public numOfItems;\n    string[] itemName;\n    string[] itemColor;\n    uint[] itemSize;\n    string[] itemDescription;\n    uint[] itemYear;\n    uint[] itemBeliveryVolume;\n    uint[] itemPrice;\n    \n    // Dictionary of sneakers id - certificate's owner\n    mapping (uint => address) public owners;\n    \n    // Check is sneakers id in range of number of sneakers\n    modifier isInRange(uint id) {\n        require(id >= 0 && id < numOfItems);\n        _;\n    }\n    \n    /**\n     * @dev Constructor to set all sneakers characteristics.\n     */\n    function Limited() public {\n        numOfItems = 3;\n        \n        for (uint i = 0; i < numOfItems; i++) {\n            owners[i] = msg.sender;\n        }\n        \n        itemName = [\"Adidas Yeezy Boost 350\", \"Adidas NMD\", \"Air Jordan 11\"];\n        itemSize = [38, 44, 45];\n        itemColor = [\"#BBBBBB\", \"#F1CD43\", \"#8F9294\"];\n        itemDescription = [\"The official collaboration sneaker by Kanye West and Adidas.\",\n            \"The NMD, adidas Originals’ new kid on the block, has quickly gained a very solid footing in the sneaker world.\",\n            \"Air Jordan is a brand of basketball footwear and athletic clothing produced by Nike.\"];\n        itemYear = [2017, 2018, 2016];\n        itemBeliveryVolume = [200, 300, 100];\n        itemPrice = [1000, 1200, 1500];\n    }\n    \n    /**\n     * @dev Get item name.\n     * @param item uint256 item id.\n     * @return string Name of the item.\n     */\n    function getItemName(uint item) constant public isInRange(item) returns(string) {\n        return itemName[item];\n    }\n    \n    /**\n     * @dev Get item size.\n     * @param item uint256 item id.\n     * @return uint256 Size of the item.\n     */\n    function getItemSize(uint item) constant public isInRange(item) returns(uint) {\n        return itemSize[item];\n    }\n    \n    /**\n     * @dev Get item color.\n     * @param item uint256 item id.\n     * @return string Hex value of color of the item.\n     */\n    function getItemColor(uint item) constant public isInRange(item) returns(string) {\n        return itemColor[item];\n    }\n    \n    /**\n     * @dev Get item description.\n     * @param item uint256 item id.\n     * @return string Full description of the item.\n     */\n    function getItemDescription(uint item) constant public isInRange(item) returns(string) {\n        return itemDescription[item];\n    }\n    \n    /**\n     * @dev Get item year.\n     * @param item uint256 item id.\n     * @return uint256 Sneakers year.\n     */\n    function getItemYear(uint item) constant public isInRange(item) returns(uint) {\n        return itemYear[item];\n    }\n    \n    /**\n     * @dev Get item belivery volume.\n     * @param item uint256 item id.\n     * @return uint256 Volume of the snekers issue.\n     */\n    function getItemBeliveryVolume(uint item) constant public isInRange(item) returns(uint) {\n        return itemBeliveryVolume[item];\n    }\n    \n    /**\n     * @dev Get item price.\n     * @param item uint256 item id.\n     * @return uint256 Price of the snekers.\n     */\n    function getItemPrice(uint item) constant public isInRange(item) returns(uint) {\n        return itemPrice[item];\n    }\n    \n    /**\n     * @dev Get all snekers id, which address has.\n     * @param ownerAddress address owner of the snekers.\n     * @return uint256[] id's snekers, which owns the owner.\n     */\n    function getItemsOfAddress(address ownerAddress) constant public returns(uint[]) {\n        uint[] myItems;\n        \n        for (uint i = 0; i < numOfItems; i++) {\n            if (owners[i] == ownerAddress) {\n                myItems.push(i);\n            }\n        }\n        \n        return myItems;\n    }\n    \n    /**\n     * @dev Transfer of rights to crossovers to another account\n     * if your are the owner of account from which to send.\n     * @param newOwner address of the new owner.\n     * @param item uint256 item id.\n     * @return bool Status of the transfer.\n     */\n    function transferRights(address newOwner, uint item) public returns(bool) {\n        if (owners[item] == msg.sender) {\n            owners[item] = newOwner;\n            return true;\n        }\n        \n        return false;\n    }\n    \n}\n",
  "sourcePath": "/Users/kushkamisha/Documents/Programming/Solidity/Limited/contracts/Limited.sol",
  "compiler": {
    "name": "solc",
    "version": "0.4.19+commit.c4cbbb05.Emscripten.clang"
  },
  "schemaVersion": "2.0.0",
  "updatedAt": "2018-03-18T15:21:19.872Z"
}