{
  "contractName": "Records",
  "abi": [
    {
      "constant": true,
      "inputs": [],
      "name": "numOfColumns",
      "outputs": [
        {
          "name": "",
          "type": "uint256"
        }
      ],
      "payable": false,
      "stateMutability": "view",
      "type": "function"
    },
    {
      "inputs": [],
      "payable": false,
      "stateMutability": "nonpayable",
      "type": "constructor"
    },
    {
      "constant": true,
      "inputs": [
        {
          "name": "index",
          "type": "uint256"
        }
      ],
      "name": "getColumnLength",
      "outputs": [
        {
          "name": "",
          "type": "uint256"
        }
      ],
      "payable": false,
      "stateMutability": "view",
      "type": "function"
    },
    {
      "constant": false,
      "inputs": [],
      "name": "addColumn",
      "outputs": [],
      "payable": false,
      "stateMutability": "nonpayable",
      "type": "function"
    },
    {
      "constant": false,
      "inputs": [
        {
          "name": "columnIndex",
          "type": "uint256"
        },
        {
          "name": "rowIndex",
          "type": "uint256"
        },
        {
          "name": "newData",
          "type": "bytes32"
        }
      ],
      "name": "changeData",
      "outputs": [],
      "payable": false,
      "stateMutability": "nonpayable",
      "type": "function"
    },
    {
      "constant": false,
      "inputs": [
        {
          "name": "index",
          "type": "uint256"
        },
        {
          "name": "data",
          "type": "bytes32"
        }
      ],
      "name": "pushToColumn",
      "outputs": [],
      "payable": false,
      "stateMutability": "nonpayable",
      "type": "function"
    },
    {
      "constant": true,
      "inputs": [
        {
          "name": "columnIndex",
          "type": "uint256"
        },
        {
          "name": "rowIndex",
          "type": "uint256"
        }
      ],
      "name": "get",
      "outputs": [
        {
          "name": "",
          "type": "bytes32"
        },
        {
          "name": "",
          "type": "bool"
        }
      ],
      "payable": false,
      "stateMutability": "view",
      "type": "function"
    }
  ],
  "bytecode": "0x60606040526000600155341561001457600080fd5b61002f6100346401000000000261048f176401000000009004565b610129565b6000805480600101828161004891906100c8565b9160005260206000209001600061005d6100f4565b604051809103906000f080151561007357600080fd5b909190916101000a81548173ffffffffffffffffffffffffffffffffffffffff021916908373ffffffffffffffffffffffffffffffffffffffff16021790555050600160008154809291906001019190505550565b8154818355818115116100ef578183600052602060002091820191016100ee9190610104565b5b505050565b6040516105a980610e7183390190565b61012691905b8082111561012257600081600090555060010161010a565b5090565b90565b610d39806101386000396000f300606060405260043610610078576000357c0100000000000000000000000000000000000000000000000000000000900463ffffffff168063669e48aa1461007d57806381b7fb31146100d057806384c8e68e14610107578063ad26f71e14610130578063dd82fbf014610145578063ee9034531461017e575b600080fd5b341561008857600080fd5b6100a760048080359060200190919080359060200190919050506101ae565b604051808360001916600019168152602001821515151581526020019250505060405180910390f35b34156100db57600080fd5b6100f160048080359060200190919050506103a0565b6040518082815260200191505060405180910390f35b341561011257600080fd5b61011a610489565b6040518082815260200191505060405180910390f35b341561013b57600080fd5b61014361048f565b005b341561015057600080fd5b61017c600480803590602001909190803590602001909190803560001916906020019091905050610523565b005b341561018957600080fd5b6101ac600480803590602001909190803560001916906020019091905050610605565b005b600080600080600086600081101580156101c9575060015481105b15156101d457600080fd5b8787600081101580156102a657506000828154811015156101f157fe5b906000526020600020900160009054906101000a900473ffffffffffffffffffffffffffffffffffffffff1673ffffffffffffffffffffffffffffffffffffffff16631f7b6d326000604051602001526040518163ffffffff167c0100000000000000000000000000000000000000000000000000000000028152600401602060405180830381600087803b151561028857600080fd5b6102c65a03f1151561029957600080fd5b5050506040518051905081105b15156102b157600080fd5b60008a8154811015156102c057fe5b906000526020600020900160009054906101000a900473ffffffffffffffffffffffffffffffffffffffff1695508573ffffffffffffffffffffffffffffffffffffffff16639507d39a8a6000604051604001526040518263ffffffff167c0100000000000000000000000000000000000000000000000000000000028152600401808281526020019150506040805180830381600087803b151561036457600080fd5b6102c65a03f1151561037557600080fd5b5050506040518051906020018051905080955081965050508484975097505050505050509250929050565b600081600081101580156103b5575060015481105b15156103c057600080fd5b6000838154811015156103cf57fe5b906000526020600020900160009054906101000a900473ffffffffffffffffffffffffffffffffffffffff1673ffffffffffffffffffffffffffffffffffffffff16631f7b6d326000604051602001526040518163ffffffff167c0100000000000000000000000000000000000000000000000000000000028152600401602060405180830381600087803b151561046657600080fd5b6102c65a03f1151561047757600080fd5b50505060405180519050915050919050565b60015481565b600080548060010182816104a39190610703565b916000526020600020900160006104b861072f565b604051809103906000f08015156104ce57600080fd5b909190916101000a81548173ffffffffffffffffffffffffffffffffffffffff021916908373ffffffffffffffffffffffffffffffffffffffff16021790555050600160008154809291906001019190505550565b60008381548110151561053257fe5b906000526020600020900160009054906101000a900473ffffffffffffffffffffffffffffffffffffffff1673ffffffffffffffffffffffffffffffffffffffff1663aac9d67783836000604051602001526040518363ffffffff167c010000000000000000000000000000000000000000000000000000000002815260040180838152602001826000191660001916815260200192505050602060405180830381600087803b15156105e457600080fd5b6102c65a03f115156105f557600080fd5b5050506040518051905050505050565b6000826000811015801561061a575060015481105b151561062557600080fd5b60008481548110151561063457fe5b906000526020600020900160009054906101000a900473ffffffffffffffffffffffffffffffffffffffff1691508173ffffffffffffffffffffffffffffffffffffffff1663606e77f3846000604051602001526040518263ffffffff167c0100000000000000000000000000000000000000000000000000000000028152600401808260001916600019168152602001915050602060405180830381600087803b15156106e157600080fd5b6102c65a03f115156106f257600080fd5b505050604051805190505050505050565b81548183558181151161072a57818360005260206000209182019101610729919061073f565b5b505050565b6040516105a98061076583390190565b61076191905b8082111561075d576000816000905550600101610745565b5090565b905600606060405260008055341561001357600080fd5b610587806100226000396000f300606060405260043610610078576000357c0100000000000000000000000000000000000000000000000000000000900463ffffffff1680631f7b6d321461007d578063606e77f3146100a65780638f7dcfa3146100e55780639507d39a14610116578063aac9d67714610160578063d86e697d146101a8575b600080fd5b341561008857600080fd5b6100906101fa565b6040518082815260200191505060405180910390f35b34156100b157600080fd5b6100cb600480803560001916906020019091905050610200565b604051808215151515815260200191505060405180910390f35b34156100f057600080fd5b6100f86102c4565b60405180826000191660001916815260200191505060405180910390f35b341561012157600080fd5b61013760048080359060200190919050506102ca565b604051808360001916600019168152602001821515151581526020019250505060405180910390f35b341561016b57600080fd5b61018e600480803590602001909190803560001916906020019091905050610378565b604051808215151515815260200191505060405180910390f35b34156101b357600080fd5b6101cd600480803560001916906020019091905050610517565b60405180836000191660001916815260200182600019166000191681526020019250505060405180910390f35b60005481565b600061020a61053b565b60006040805190810160405280856000191681526020016001546000191681525091508160000151426000546040518084600019166000191681526020018381526020018281526020019350505050604051809103902090508160026000836000191660001916815260200190815260200160002060008201518160000190600019169055602082015181600101906000191690559050508060018160001916905550600160008082825401925050819055505050919050565b60015481565b600080600080600154915060005485101515610312577fffffffffffffffffffffffffffffffffffffffffffffffffffffffffffffffff600081600102915093509350610371565b600090505b8481101561034b57600260008360001916600019168152602001908152602001600020600101549150806001019050610317565b600260008360001916600019168152602001908152602001600020600001546001935093505b5050915091565b60008061038361053b565b60008060015493506000548710151561039f576000945061050d565b600091505b8682101561042457600260008560001916600019168152602001908152602001600020604080519081016040529081600082015460001916600019168152602001600182015460001916600019168152505092506002600085600019166000191681526020019081526020016000206001015493508160010191506103a4565b856002600086600019166000191681526020019081526020016000206000018160001916905550600260008560001916600019168152602001908152602001600020600001544260005460405180846000191660001916815260200183815260200182815260200193505050506040518091039020905060026000856000191660001916815260200190815260200160002060026000836000191660001916815260200190815260200160002060008201548160000190600019169055600182015481600101906000191690559050508083602001906000191690816000191681525050600194505b5050505092915050565b60026020528060005260406000206000915090508060000154908060010154905082565b6040805190810160405280600080191681526020016000801916815250905600a165627a7a72305820b37537c3cb78d9984bca3fe24a643840a636a8a428b16f48283576b5ca5e9d970029a165627a7a723058200a9ed31b7db1264e2845143935ffd811cfe78e99719e2bb9ad94600f71d972840029606060405260008055341561001357600080fd5b610587806100226000396000f300606060405260043610610078576000357c0100000000000000000000000000000000000000000000000000000000900463ffffffff1680631f7b6d321461007d578063606e77f3146100a65780638f7dcfa3146100e55780639507d39a14610116578063aac9d67714610160578063d86e697d146101a8575b600080fd5b341561008857600080fd5b6100906101fa565b6040518082815260200191505060405180910390f35b34156100b157600080fd5b6100cb600480803560001916906020019091905050610200565b604051808215151515815260200191505060405180910390f35b34156100f057600080fd5b6100f86102c4565b60405180826000191660001916815260200191505060405180910390f35b341561012157600080fd5b61013760048080359060200190919050506102ca565b604051808360001916600019168152602001821515151581526020019250505060405180910390f35b341561016b57600080fd5b61018e600480803590602001909190803560001916906020019091905050610378565b604051808215151515815260200191505060405180910390f35b34156101b357600080fd5b6101cd600480803560001916906020019091905050610517565b60405180836000191660001916815260200182600019166000191681526020019250505060405180910390f35b60005481565b600061020a61053b565b60006040805190810160405280856000191681526020016001546000191681525091508160000151426000546040518084600019166000191681526020018381526020018281526020019350505050604051809103902090508160026000836000191660001916815260200190815260200160002060008201518160000190600019169055602082015181600101906000191690559050508060018160001916905550600160008082825401925050819055505050919050565b60015481565b600080600080600154915060005485101515610312577fffffffffffffffffffffffffffffffffffffffffffffffffffffffffffffffff600081600102915093509350610371565b600090505b8481101561034b57600260008360001916600019168152602001908152602001600020600101549150806001019050610317565b600260008360001916600019168152602001908152602001600020600001546001935093505b5050915091565b60008061038361053b565b60008060015493506000548710151561039f576000945061050d565b600091505b8682101561042457600260008560001916600019168152602001908152602001600020604080519081016040529081600082015460001916600019168152602001600182015460001916600019168152505092506002600085600019166000191681526020019081526020016000206001015493508160010191506103a4565b856002600086600019166000191681526020019081526020016000206000018160001916905550600260008560001916600019168152602001908152602001600020600001544260005460405180846000191660001916815260200183815260200182815260200193505050506040518091039020905060026000856000191660001916815260200190815260200160002060026000836000191660001916815260200190815260200160002060008201548160000190600019169055600182015481600101906000191690559050508083602001906000191690816000191681525050600194505b5050505092915050565b60026020528060005260406000206000915090508060000154908060010154905082565b6040805190810160405280600080191681526020016000801916815250905600a165627a7a72305820b37537c3cb78d9984bca3fe24a643840a636a8a428b16f48283576b5ca5e9d970029",
  "source": "pragma solidity ^0.4.18;\n\ncontract LinkedList {\n\n    struct Node {\n        bytes32 data;\n        bytes32 prev;\n    }\n\n    uint public length = 0;\n    bytes32 public head;\n    mapping (bytes32 => Node) public nodes;\n    \n    function LinkedList() public {}\n    \n    function push_front(bytes32 data) public returns (bool) {\n        Node memory node = Node(data, head);\n        bytes32 id = keccak256(node.data, now, length);\n        nodes[id] = node;\n        head = id;\n        length += 1;\n    }\n    \n    function changeData(uint n, bytes32 newData) public returns(bool) {\n        bytes32 currentNode = head;\n        Node memory prevNode;\n        \n        if (n >= length) {\n            return false;\n        }\n        \n        for (uint i = 0; i < n; ++i) {\n            prevNode = nodes[currentNode];\n            currentNode = nodes[currentNode].prev;\n        }\n        \n        nodes[currentNode].data = newData;\n        bytes32 id = keccak256(nodes[currentNode].data, now, length);\n        nodes[id] = nodes[currentNode];\n        \n        prevNode.prev = id;\n        \n        return true;\n    }\n  \n    function get(uint n) public constant returns (bytes32, bool) {\n        bytes32 currentNode = head;\n        \n        if (n >= length) {\n            return (-1, false);\n        }\n        \n        for (uint i = 0; i < n; ++i) {\n            currentNode = nodes[currentNode].prev;\n        }\n        \n        return (nodes[currentNode].data, true);\n    }\n  \n}\n\ncontract Records {\n    LinkedList[] arr;\n    uint public numOfColumns = 0;\n    \n    function Records() public {\n        addColumn();\n    }\n    \n    modifier isOutOfRangeColumn(uint index) {\n        require(index >= 0 && index < numOfColumns);\n        _;\n    }\n    \n    modifier isOutOfRangeRow(uint columnIndex, uint rowIndex) {\n        require(rowIndex >= 0 && rowIndex < arr[columnIndex].length());\n        _;\n    }\n    \n    // Get column length by column index\n    function getColumnLength(uint index) constant public isOutOfRangeColumn(index) returns(uint) {\n        return arr[index].length();\n    }\n    \n    // Adds column to the end of the table\n    function addColumn() public {\n        arr.push(new LinkedList());\n        numOfColumns++;\n    }\n    \n    function changeData(uint columnIndex, uint rowIndex, bytes32 newData) public {\n        arr[columnIndex].changeData(rowIndex, newData);\n    }\n    \n    // Adds data to the begining of the column getted by index\n    function pushToColumn(uint index, bytes32 data) public isOutOfRangeColumn(index) {\n        LinkedList ll = arr[index];\n        ll.push_front(data);\n    }\n    \n    // Get cell by column index and row index\n    function get(uint columnIndex, uint rowIndex) constant public isOutOfRangeColumn(columnIndex) isOutOfRangeRow(columnIndex, rowIndex) returns(bytes32, bool) {\n        LinkedList ll = arr[columnIndex];\n        bytes32 value;\n        bool status;\n        (value, status) = ll.get(rowIndex);\n        \n        return (value, status);\n    }\n\n}\n",
  "sourcePath": "/Users/kushkamisha/Documents/Programming/Solidity/Blockchain 2.0/Project/contracts/Records.sol",
  "compiler": {
    "name": "solc",
    "version": "0.4.19+commit.c4cbbb05.Emscripten.clang"
  },
  "schemaVersion": "2.0.0",
  "updatedAt": "2018-03-25T07:15:32.901Z"
}